{
  "contractName": "StormBurst",
  "abi": [
    {
      "constant": true,
      "inputs": [
        {
          "name": "",
          "type": "bytes32"
        },
        {
          "name": "",
          "type": "uint256"
        }
      ],
      "name": "submissions",
      "outputs": [
        {
          "name": "mirrorLink",
          "type": "string"
        },
        {
          "name": "title",
          "type": "string"
        },
        {
          "name": "tag",
          "type": "string"
        }
      ],
      "payable": false,
      "stateMutability": "view",
      "type": "function"
    },
    {
      "constant": true,
      "inputs": [],
      "name": "tagCount",
      "outputs": [
        {
          "name": "",
          "type": "uint256"
        }
      ],
      "payable": false,
      "stateMutability": "view",
      "type": "function"
    },
    {
      "constant": true,
      "inputs": [
        {
          "name": "",
          "type": "uint256"
        }
      ],
      "name": "tagTable",
      "outputs": [
        {
          "name": "",
          "type": "string"
        }
      ],
      "payable": false,
      "stateMutability": "view",
      "type": "function"
    },
    {
      "constant": false,
      "inputs": [
        {
          "name": "mirrorLink",
          "type": "string"
        },
        {
          "name": "title",
          "type": "string"
        },
        {
          "name": "tag",
          "type": "string"
        }
      ],
      "name": "createSubmission",
      "outputs": [
        {
          "name": "success",
          "type": "bool"
        }
      ],
      "payable": false,
      "stateMutability": "nonpayable",
      "type": "function"
    },
    {
      "constant": true,
      "inputs": [],
      "name": "getTagCount",
      "outputs": [
        {
          "name": "count",
          "type": "uint256"
        }
      ],
      "payable": false,
      "stateMutability": "view",
      "type": "function"
    },
    {
      "constant": true,
      "inputs": [
        {
          "name": "index",
          "type": "uint256"
        }
      ],
      "name": "getTag",
      "outputs": [
        {
          "name": "tag",
          "type": "string"
        }
      ],
      "payable": false,
      "stateMutability": "view",
      "type": "function"
    },
    {
      "constant": true,
      "inputs": [
        {
          "name": "tag",
          "type": "string"
        }
      ],
      "name": "submissionsByTagCount",
      "outputs": [
        {
          "name": "submissionCount",
          "type": "uint256"
        }
      ],
      "payable": false,
      "stateMutability": "view",
      "type": "function"
    },
    {
      "constant": true,
      "inputs": [
        {
          "name": "tagIn",
          "type": "string"
        },
        {
          "name": "index",
          "type": "uint256"
        }
      ],
      "name": "submissionByTag",
      "outputs": [
        {
          "name": "link",
          "type": "string"
        },
        {
          "name": "title",
          "type": "string"
        },
        {
          "name": "tag",
          "type": "string"
        }
      ],
      "payable": false,
      "stateMutability": "view",
      "type": "function"
    }
  ],
  "bytecode": "0x6060604052341561000f57600080fd5b6110958061001e6000396000f30060606040526004361061008e576000357c0100000000000000000000000000000000000000000000000000000000900463ffffffff16806304d597e41461009357806365aefe731461024a578063691bbb69146104225780636f810cbc146104be578063986f191c146104e75780639bc1963d14610510578063ea3486351461060b578063fa5213421461067c575b600080fd5b341561009e57600080fd5b6100f7600480803590602001908201803590602001908080601f01602080910402602001604051908101604052809392919081815260200183838082843782019150505050505091908035906020019091905050610718565b60405180806020018060200180602001848103845287818151815260200191508051906020019080838360005b8381101561013f578082015181840152602081019050610124565b50505050905090810190601f16801561016c5780820380516001836020036101000a031916815260200191505b50848103835286818151815260200191508051906020019080838360005b838110156101a557808201518184015260208101905061018a565b50505050905090810190601f1680156101d25780820380516001836020036101000a031916815260200191505b50848103825285818151815260200191508051906020019080838360005b8381101561020b5780820151818401526020810190506101f0565b50505050905090810190601f1680156102385780820380516001836020036101000a031916815260200191505b50965050505050505060405180910390f35b341561025557600080fd5b610278600480803560001916906020019091908035906020019091905050610964565b604051808060200180602001806020018481038452878181546001816001161561010002031660029004815260200191508054600181600116156101000203166002900480156103095780601f106102de57610100808354040283529160200191610309565b820191906000526020600020905b8154815290600101906020018083116102ec57829003601f168201915b505084810383528681815460018160011615610100020316600290048152602001915080546001816001161561010002031660029004801561038c5780601f106103615761010080835404028352916020019161038c565b820191906000526020600020905b81548152906001019060200180831161036f57829003601f168201915b505084810382528581815460018160011615610100020316600290048152602001915080546001816001161561010002031660029004801561040f5780601f106103e45761010080835404028352916020019161040f565b820191906000526020600020905b8154815290600101906020018083116103f257829003601f168201915b5050965050505050505060405180910390f35b341561042d57600080fd5b61044360048080359060200190919050506109a7565b6040518080602001828103825283818151815260200191508051906020019080838360005b83811015610483578082015181840152602081019050610468565b50505050905090810190601f1680156104b05780820380516001836020036101000a031916815260200191505b509250505060405180910390f35b34156104c957600080fd5b6104d1610a62565b6040518082815260200191505060405180910390f35b34156104f257600080fd5b6104fa610a68565b6040518082815260200191505060405180910390f35b341561051b57600080fd5b6105f1600480803590602001908201803590602001908080601f0160208091040260200160405190810160405280939291908181526020018383808284378201915050505050509190803590602001908201803590602001908080601f0160208091040260200160405190810160405280939291908181526020018383808284378201915050505050509190803590602001908201803590602001908080601f01602080910402602001604051908101604052809392919081815260200183838082843782019150505050505091905050610a72565b604051808215151515815260200191505060405180910390f35b341561061657600080fd5b610666600480803590602001908201803590602001908080601f01602080910402602001604051908101604052809392919081815260200183838082843782019150505050505091905050610d3e565b6040518082815260200191505060405180910390f35b341561068757600080fd5b61069d6004808035906020019091905050610d72565b6040518080602001828103825283818151815260200191508051906020019080838360005b838110156106dd5780820151818401526020810190506106c2565b50505050905090810190601f16801561070a5780820380516001836020036101000a031916815260200191505b509250505060405180910390f35b610720610e53565b610728610e53565b610730610e53565b60008061073c87610e22565b915060008083600019166000191681526020019081526020016000208681548110151561076557fe5b90600052602060002090600302019050806000018160010182600201828054600181600116156101000203166002900480601f0160208091040260200160405190810160405280929190818152602001828054600181600116156101000203166002900480156108165780601f106107eb57610100808354040283529160200191610816565b820191906000526020600020905b8154815290600101906020018083116107f957829003601f168201915b50505050509250818054600181600116156101000203166002900480601f0160208091040260200160405190810160405280929190818152602001828054600181600116156101000203166002900480156108b25780601f10610887576101008083540402835291602001916108b2565b820191906000526020600020905b81548152906001019060200180831161089557829003601f168201915b50505050509150808054600181600116156101000203166002900480601f01602080910402602001604051908101604052809291908181526020018280546001816001161561010002031660029004801561094e5780601f106109235761010080835404028352916020019161094e565b820191906000526020600020905b81548152906001019060200180831161093157829003601f168201915b5050505050905094509450945050509250925092565b60006020528160005260406000208181548110151561097f57fe5b9060005260206000209060030201600091509150508060000190806001019080600201905083565b6109af610e53565b600160008381526020019081526020016000208054600181600116156101000203166002900480601f016020809104026020016040519081016040528092919081815260200182805460018160011615610100020316600290048015610a565780601f10610a2b57610100808354040283529160200191610a56565b820191906000526020600020905b815481529060010190602001808311610a3957829003601f168201915b50505050509050919050565b60025481565b6000600254905090565b60008060008091505b60025482108015610c18575073__StringUtils___________________________6346bdca9a60016000858152602001908152602001600020866000604051602001526040518363ffffffff167c0100000000000000000000000000000000000000000000000000000000028152600401808060200180602001838103835285818154600181600116156101000203166002900481526020019150805460018160011615610100020316600290048015610b765780601f10610b4b57610100808354040283529160200191610b76565b820191906000526020600020905b815481529060010190602001808311610b5957829003601f168201915b5050838103825284818151815260200191508051906020019080838360005b83811015610bb0578082015181840152602081019050610b95565b50505050905090810190601f168015610bdd5780820380516001836020036101000a031916815260200191505b5094505050505060206040518083038186803b1515610bfb57600080fd5b6102c65a03f41515610c0c57600080fd5b50505060405180519050155b15610c2a578180600101925050610a7b565b600254821415610c6f5783600160008481526020019081526020016000209080519060200190610c5b929190610e67565b506002600081548092919060010191905055505b610c7884610e22565b905060008082600019166000191681526020019081526020016000208054806001018281610ca69190610ee7565b916000526020600020906003020160006060604051908101604052808a81526020018981526020018881525090919091506000820151816000019080519060200190610cf3929190610f19565b506020820151816001019080519060200190610d10929190610f19565b506040820151816002019080519060200190610d2d929190610f19565b505050506001925050509392505050565b600080610d4a83610e22565b9050600080826000191660001916815260200190815260200160002080549050915050919050565b60016020528060005260406000206000915090508054600181600116156101000203166002900480601f016020809104026020016040519081016040528092919081815260200182805460018160011615610100020316600290048015610e1a5780601f10610def57610100808354040283529160200191610e1a565b820191906000526020600020905b815481529060010190602001808311610dfd57829003601f168201915b505050505081565b6000610e2c610f99565b829050600081511415610e455760006001029150610e4d565b602083015191505b50919050565b602060405190810160405280600081525090565b828054600181600116156101000203166002900490600052602060002090601f016020900481019282601f10610ea857805160ff1916838001178555610ed6565b82800160010185558215610ed6579182015b82811115610ed5578251825591602001919060010190610eba565b5b509050610ee39190610fad565b5090565b815481835581811511610f1457600302816003028360005260206000209182019101610f139190610fd2565b5b505050565b828054600181600116156101000203166002900490600052602060002090601f016020900481019282601f10610f5a57805160ff1916838001178555610f88565b82800160010185558215610f88579182015b82811115610f87578251825591602001919060010190610f6c565b5b509050610f959190610fad565b5090565b602060405190810160405280600081525090565b610fcf91905b80821115610fcb576000816000905550600101610fb3565b5090565b90565b61101e91905b8082111561101a5760008082016000610ff19190611021565b6001820160006110019190611021565b6002820160006110119190611021565b50600301610fd8565b5090565b90565b50805460018160011615610100020316600290046000825580601f106110475750611066565b601f0160209004906000526020600020908101906110659190610fad565b5b505600a165627a7a72305820be22fde9155ec25637afc619c9b4297889d0c3386b39d3990708594da50d602e0029",
  "source": "pragma solidity ^0.4.18;\n\nimport \"./StringUtils.sol\";\n\ncontract StormBurst {\n\n\tmapping (bytes32 => Submission[]) public submissions;\n\tmapping (uint => string) public tagTable;\n\tuint public tagCount;\n\n\tstruct Submission {\n\t\tstring mirrorLink;\n\t\tstring title;\n\t\tstring tag;\n\t}\n\n\tfunction createSubmission(string mirrorLink, string title, string tag ) public returns(bool success) {\n\t\tuint tagIdx = 0;\n\t\twhile (tagIdx < tagCount && !StringUtils.equal(tagTable[tagIdx],tag)) {\n\t\t\ttagIdx++;\n\t\t}\n\n\t\tif (tagIdx == tagCount) {\n\t\t\ttagTable[tagIdx] = tag;\n\t\t\ttagCount++;\n\t\t}\n\n\t\tbytes32 tagBytes = _stringToBytes32(tag);\n\t\tsubmissions[tagBytes].push(Submission(mirrorLink, title, tag));\n\t\treturn true;\n\t}\n\n\tfunction getTagCount() public view returns (uint count) {\n\t\treturn tagCount;\n\t}\n\n\tfunction getTag(uint index) public view returns (string tag) {\n\t\treturn tagTable[index];\n\t}\n\n\tfunction submissionsByTagCount(string tag) public view returns(uint submissionCount) {\n\t\tbytes32 tagBytes = _stringToBytes32(tag);\n\t\treturn submissions[tagBytes].length;\n  }\n\n\tfunction submissionByTag(string tagIn, uint index) public view returns(string link, string title, string tag) {\n\t\tbytes32 tagBytes = _stringToBytes32(tagIn);\n\t  Submission storage rval = submissions[tagBytes][index];\n\t\treturn (rval.mirrorLink, rval.title, rval.tag);\n\t}\n\n\tfunction _stringToBytes32(string memory source) private pure returns (bytes32 result) {\n\t\tbytes memory tempEmptyStringTest = bytes(source);\n\t\tif (tempEmptyStringTest.length == 0) {\n\t\t\treturn 0x0;\n\t\t}\n\t\tassembly {\n\t\t\tresult := mload(add(source, 32))\n\t\t}\n}\n\n}\n",
  "sourcePath": "/home/lsmith/stormburst-truffle/contracts/StormBurst.sol",
  "compiler": {
    "name": "solc",
    "version": "0.4.19+commit.c4cbbb05.Emscripten.clang"
  },
  "schemaVersion": "1.0.1",
  "updatedAt": "2018-02-18T01:18:29.584Z"
}